:100000007500FF7501FF7502FF7503FF7504FF752D
:1000100005FF7506FF7507FF7508FF7509FF750A6F
:10002000FF750BFF750CFF750DFF750EFF750FFF4C
:100030007510FF7511FF7512FF7513FF7514FF75AD
:1000400015FF7516FF7517FF7518FF7519FF751ADF
:10005000FF751BFF751CFF751DFF751EFF751FFFCC
:100060007520FF7521FF7522FF7523FF7524FF752D
:1000700025FF7526FF7527FF7528FF7529FF752A4F
:10008000FF752BFF752CFF752DFF752EFF752FFF4C
:100090007530FF7531FF7532FF7533FF7534FF75AD
:1000A00035FF7536FF7537FF7538FF7539FF753ABF
:1000B000FF753BFF753CFF753DFF753EFF753FFFCC
:1000C0007540FF7541FF7542FF7543FF7544FF752D
:1000D00045FF7546FF7547FF7548FF7549FF754A2F
:1000E000FF754BFF754CFF754DFF754EFF754FFF4C
:1000F0007550FF7551FF7552FF7553FF7554FF75AD
:1001000055FF7556FF7557FF7558FF7559FF755A9E
:10011000FF755BFF755CFF755DFF755EFF755FFFCB
:100120007560FF7561FF7562FF7563FF7564FF752C
:1001300065FF7566FF7567FF7568FF7569FF756A0E
:10014000FF756BFF756CFF756DFF756EFF756FFF4B
:100150007570FF7571FF7572FF7573FF7574FF75AC
:1001600075FF7576FF7577FF7578FF7579FF757A7E
:10017000FF757BFF757CFF757DFF757EFF757FFFCB
:100180007580FF7581FF7582FF7583FF7584FF752C
:1001900085FF7586FF7587FF7588FF7589FF758AEE
:1001A000FF758BFF758CFF758DFF758EFF758FFF4B
:0F01B0007590FF7591FF7592FF7593FF7594FF22
:1001BF007595FF7596FF7597FF7598FF7599FF7584
:1001CF009AFF759BFF759CFF759DFF759EFF759F31
:1001DF00FF75A0FF75A1FF75A2FF75A3FF75A4FFA3
:1001EF0075A5FF75A6FF75A7FF75A8FF75A9FF7504
:1001FF00AAFF75ABFF75ACFF75ADFF75AEFF75AFA1
:10020F00FF75B0FF75B1FF75B2FF75B3FF75B4FF22
:10021F0075B5FF75B6FF75B7FF75B8FF75B9FF7583
:10022F00BAFF75BBFF75BCFF75BDFF75BEFF75BF10
:10023F00FF75C0FF75C1FF75C2FF75C3FF75C4FFA2
:10024F0075C5FF75C6FF75C7FF75C8FF75C9FF7503
:10025F00CAFF75CBFF75CCFF75CDFF75CEFF75CF80
:10026F00FF75D0FF75D1FF75D2FF75D3FF75D4FF22
:10027F0075D5FF75D6FF75D7FF75D8FF75D9FF7583
:10028F00DAFF75DBFF75DCFF75DDFF75DEFF75DFF0
:10029F00FF75E0FF75E1FF75E2FF75E3FF75E4FFA2
:1002AF0075E5FF75E6FF75E7FF75E8FF75E9FF7503
:1002BF00EAFF75EBFF75ECFF75EDFF75EEFF75EF60
:1002CF00FF75F0FF75F1FF75F2FF75F3FF75F4FF22
:1002DF0075F5FF75F6FF75F7FF75F8FF75F9FF7583
:1002EF00FAFF75FBFF75FCFF75FDFF75FEFF75FFD0
:1002FF00FF53000153010253020453030853041028
:10030F0053052053064053078053080153090253E6
:10031F000A04530B08530C10530D20530E40530F68
:10032F008053100153110253120453130853141026
:10033F005315205316405317805318015319025366
:10034F001A04531B08531C10531D20531E40531FD8
:10035F0080532001532102532204532308532410A6
:10036F0053252053264053278053280153290253E6
:02037F002A044E
:10038100532B08532C10532D20532E40532F8053A1
:10039100300153310253320453330853341053356F
:1003A10020533640533780533801533902533A04AE
:1003B100533B08533C10533D20533E40533F805321
:1003C10040015341025342045343085344105345DF
:1003D10020534640534780534801534902534A042E
:1003E100534B08534C10534D20534E40534F8053A1
:1003F100500153510253520453530853541053554F
:1004010020535640535780535801535902535A04AD
:10041100535B08535C10535D20535E40535F805320
:1004210060015361025362045363085364105365BE
:1004310020536640536780536801536902536A042D
:10044100536B08536C10536D20536E40536F8053A0
:10045100700153710253720453730853741053752E
:1004610020537640537780537801537902537A04AD
:10047100537B08537C10537D20537E40537F805320
:10048100800153810253820453830853841053859E
:1004910020538640538780538801538902538A042D
:1004A100538B08538C10538D20538E40538F8053A0
:1004B100900153910253920453930853941053950E
:1004C10020539640539780539801539902539A04AD
:1004D100539B08539C10539D20539E40539F805320
:1004E100A00153A10253A20453A30853A41053A57E
:1004F1002053A64053A78053A80153A90253AA042D
:1005010053AB0853AC1053AD2053AE4053AF80539F
:10051100B00153B10253B20453B30853B41053B5ED
:100521002053B64053B78053B80153B90253BA04AC
:1005310053BB0853BC1053BD2053BE4053BF80531F
:02054100C001F7
:1005430053C10253C20453C30853C41053C52053A9
:10055300C64053C78053C80153C90253CA0453CB7F
:100563000853CC1053CD2053CE4053CF8053D001EA
:1005730053D10253D20453D30853D41053D5205329
:10058300D64053D78053D80153D90253DA0453DBEF
:100593000853DC1053DD2053DE4053DF8053E0016A
:1005A30053E10253E20453E30853E41053E52053A9
:1005B300E64053E78053E80153E90253EA0453EB5F
:1005C3000853EC1053ED2053EE4053EF8053F001EA
:1005D30053F10253F20453F30853F41053F5205329
:1005E300F64053F78053F80153F90253FA0453FBCF
:0D05F3000853FC1053FD2053FE4053FF80C1
:00000001FF
