:100000007520017521027522047523087524107569
:100010002520752640752780752801752902752AC7
:1000200004752B08752C10752D20752E40752F80AA
:10003000804B74001000FB74011009F6740210125A
:10004000F67403101BF674041024F67405102DF6D4
:1000500074061036F67407103FF674081040F674F4
:10006000091049F6740A1052F6740B105BF6740C02
:100070001064F6740D106DF6740E1076F6740F1091
:040080007FF674FF94
:00000001FF
